:020000040800F2
:1000000068070020F5080008E5040008E704000878
:10001000EB040008EF040008F304000800000000EF
:10002000000000000000000000000000F7040008CD
:10003000F904000800000000FB040008FD040008AB
:100040000F0900080F0900080F0900080F09000830
:100050000F0900080F0900080F0900080F09000820
:100060000F0900080F0900080F0900080F09000810
:100070000F0900080F0900080F0900080F09000800
:100080000F0900080F0900080F0900080F090008F0
:100090000F0900080F0900080F0900080F090008E0
:1000A0000F0900080F0900080F0900080F090008D0
:1000B0000F0900080F0900080F0900080F090008C0
:1000C0000F0900080F0900080F0900080F090008B0
:1000D0000F0900086B0800080F0900080F09000845
:1000E0000F0900080F0900080F0900080F09000890
:1000F0000F0900080F0900080F0900080F09000880
:100100000F0900080F0900080F0900080F0900086F
:100110000F0900080F0900080F0900080F0900085F
:100120000F0900080F0900080F0900080F0900084F
:1001300000F002F800F045F80AA090E8000C8244B4
:100140008344AAF10107DA4501D100F03AF8AFF291
:10015000090EBAE80F0013F0010F18BFFB1A43F0A5
:1001600001031847AC2B0000CC2B0000103A24BF31
:1001700078C878C1FAD8520724BF30C830C144BF0C
:1001800004680C607047000000230024002500264E
:10019000103A28BF78C1FBD8520728BF30C148BFEA
:1001A0000B607047642901F02382632901F0F0821B
:1001B000732901F0F582002070471FB51FBD10B5EF
:1001C00010BD01F04FFB1146FFF7F7FF00F05FF89D
:1001D00001F06DFB03B4FFF7F2FF03BC00F0EAFA95
:1001E00070B504460D462A46214693A001F096F9C3
:1001F00070BD70B504460D462A46214691A001F017
:100200008DF970BD2DE9F04104460D469049284610
:1002100002F0A8FB074602F089FB0646324621465B
:1002200088A001F07BF9BDE8F08170B504460D4669
:10023000164633462A46214686A001F06FF970BD66
:100240002DE9F04106460F461446984623463A46A5
:10025000314684A001F062F9642000F07EFA0025A6
:1002600005E058F8251084A001F058F96D1CA5424E
:10027000F7DB7BA001F052F9BDE8F08170B50446D0
:100280000D462A4621467DA001F048F970BDADF526
:10029000836D00BF00F024FA4FF4A06001F0CEF8A7
:1002A0004FF4165000F095FAC5E07848008800F445
:1002B00000400028F8D000BF75480078FD2812D112
:1002C00073484078FF280ED171488078FF280AD102
:1002D0006F48C078FF2806D1C8216D4801F0C4F9E5
:1002E0006CA001F01BF96A480078312803D16AA19B
:1002F0006CA0FFF775FF66480078322813D16B4871
:10030000006802F0E7FA04464FF03332684B01F020
:100310008BFE064601F056FE6449086008460168F7
:1003200064A0FFF76FFF5A480078332809D163486B
:100330000068401C614908600846016860A0FFF73A
:1003400058FF53480078342833D14FF0000A2CE08E
:100350000AF1010002F09FF880465B4A5B4B02F015
:10036000C5F8064600225A4B01F00EFF044601F084
:10037000D9FD0022574BCDE9000101F055FE0022C6
:10038000554BCDE9020102F0B1F8CDE9040102F0CC
:1003900053F806A941F82A0006A850F82A2000219F
:1003A0004EA0FFF742FF0AF1010ABAF1FF0FCFDBBF
:1003B00000BF37480078352832D14FF0000A25E0D9
:1003C0000AF1010002F067F83F4A404BCDE9000115
:1003D00002F08CF800223E4BCDE9020101F0D4FE80
:1003E000CDE9040101F09EFD06460022394B01F0E3
:1003F0001BFE04460022384B02F078F8804602F0DB
:100400001BF806A941F82A000AF1010ABAF1FF0F08
:10041000D6DB06ABFF22002130A0FFF711FF00BFA3
:100420001B480078362803D100212CA0FFF726FFB7
:1004300000201649088038E725733D22257322FFE6
:10044000FFFF000025733D2564FFFFFF0000000053
:100450000000C8426164642025732C25642C256447
:10046000FFFFFF00616464742025732C25642C2534
:1004700064FFFFFF0000000025630000636C65203F
:1004800025732C2564FFFFFF0000000024000020DE
:100490003C0000204F4B4B00746573745F6E756DAC
:1004A0000000000074302E747874000004000020F6
:1004B0003333D33F78302E76616C0000000000208B
:1004C0006E302E76616C00001F85EB51B81E09401E
:1004D000000049400000F03F0080564073302E6914
:1004E00064000000704700BFFEE700BFFEE700BFEA
:1004F000FEE700BFFEE77047704770477047000097
:100500000CB50020019000906C48006840F48030E9
:100510006A49086000BF6948006800F40030009034
:100520000198401C0190009818B90198B0F5A06F8F
:10053000F1D16248006800F4003010B10120009051
:1005400001E0002000900098012843D15C48006839
:1005500040F010005A4908600846006820F0030087
:1005600008600846006840F0020008605348406890
:10057000524948600846406848600846406840F470
:10058000806048600846406820F47C104860084657
:10059000406840F4E81048600846006840F0807009
:1005A000086000BF4548006800F000700028F9D0DE
:1005B0004248406820F003004049486008464068CF
:1005C00040F00200486000BF3C48406800F00C006A
:1005D0000828F9D10CBD10B5FFF792FF10BD10B57A
:1005E0003648006840F00100344908600846406819
:1005F000344908403149486008460068324908409B
:100600002E4908600846006820F4802008600846EB
:10061000406820F4FE0048604FF41F008860FFF738
:10062000DAFF4FF000602949086010BD10B50021C5
:1006300000200022214B5B6803F00C0121B104294A
:1006400006D0082928D107E0214B224C236027E05F
:100650001F4B204C236023E0184B5B6803F47010A1
:10066000164B5B6803F48032022303EB904022B9FF
:10067000194B4343174C23600DE0104B5B6803F4A8
:10068000003323B1144B4343124C236003E0104B5F
:100690004343104C236003E00D4B0E4C236000BF1E
:1006A00000BF064B5B68C3F303130C4CE15C094BC2
:1006B0001B68CB40074C236010BD000000100240B7
:1006C000002002400000FFF8FFFFF6FE08ED00E00A
:1006D00000127A000800002000093D000C000020F4
:1006E00010B56FF0040000F0F8FE2E4800682E49A7
:1006F000B0FBF1F02D4908700846007800EB40018E
:10070000C1EBC0104FF6FF7101EAC0002849088014
:1007100010BD0146254A12784A434FF0E0235A6142
:1007200000229A611A46126942F001021A6100BF62
:100730004FF0E022106900F001021AB100F480329B
:10074000002AF5D04FF0E022126922F001024FF0AA
:10075000E0231A6100229A6170470146144A128808
:100760004A434FF0E0235A6100229A611A46126907
:1007700042F001021A6100BF4FF0E022106900F060
:1007800001021AB100F48032002AF5D04FF0E022C5
:10079000126922F001024FF0E0231A6100229A61EF
:1007A000704700000800002000127A001C000020A2
:1007B0001E000020014600BF704700BF494A128852
:1007C00002F04002002AF9D0C2B2464B1B1D1A802B
:1007D000704710B586B00446012144F2040000F0D1
:1007E000C5FB4FF40070ADF8140003208DF816001F
:1007F00018208DF8170005A93B4800F0FBF84FF4CE
:100800008060ADF8140004208DF8170005A9364863
:1008100000F0F0F825208DF8000003208DF801008D
:100820008DF8020001208DF80300684600F00BFEF1
:1008300001940020ADF80800ADF80A00ADF80C00F6
:10084000ADF810000C20ADF80E0001A9254800F00D
:1008500034FC012240F22551224800F0C6FC01215F
:10086000204800F0B6FC06B010BD10B540F225518E
:100870001C4800F09FFD10B31A4800F01BFDC4B2E5
:100880001A48008800F40040C8B91848008800F4ED
:10089000804060B10A2C03D000201449088020E079
:1008A0001248008840F400401049088019E00D2CDF
:1008B00006D10E48008840F480400C49088010E0C2
:1008C0000A480088C0F30D0009490C540748008805
:1008D000401C0649088008460088C72801DD002022
:1008E000088010BD003801400008014024000020AD
:1008F0003C0000200948804709480047FEE7FEE722
:10090000FEE7FEE7FEE7FEE7FEE7FEE7FEE7FEE7BF
:1009100004480549054A064B70470000DF050008FA
:1009200031010008680100206807002068030020EA
:100930006803002010B50446CC48844208D1012148
:10094000042000F02DFB0021042000F029FB46E0EC
:10095000C748844208D10121082000F021FB002172
:10096000082000F01DFB3AE0C248844208D1012172
:10097000102000F015FB0021102000F011FB2EE0EC
:10098000BD48844208D10121202000F009FB00214C
:10099000202000F005FB22E0B848844208D1012164
:1009A000402000F0FDFA0021402000F0F9FA16E0A6
:1009B000B348844208D10121802000F0F1FA0021DF
:1009C000802000F0EDFA0AE0AE48844207D1012110
:1009D000801500F0E5FA0021A01500F0E1FA10BD45
:1009E00010B50121084600F0DBFA0021012000F0DB
:1009F000D7FA10BD2DE9F04102460025002600205F
:100A000000230024002791F803C00CF00F0591F893
:100A100003C00CF0100CBCF1000F03D091F802C021
:100A20004CEA050591F800C0BCF1000F31D0146804
:100A300000202BE04FF0010C0CFA00F3B1F800C0DD
:100A40000CEA03069E4220D183004FF00F0C0CFAF3
:100A500003F7BC4305FA03FC4CEA040491F803C015
:100A6000BCF1280F06D14FF0010C0CFA00FCC2F8C3
:100A700014C00AE091F803C0BCF1480F05D14FF053
:100A8000010C0CFA00FCC2F810C0401C0828D1D39D
:100A90001460B1F800C0BCF1FF0F34DD54680020D1
:100AA0002EE000F1080C4FF0010808FA0CF3B1F841
:100AB00000C00CEA03069E4221D183004FF00F0CC8
:100AC0000CFA03F7BC4305FA03FC4CEA040491F862
:100AD00003C0BCF1280F05D100F1080C08FA0CF88E
:100AE000C2F8148091F803C0BCF1480F07D100F19F
:100AF000080C4FF0010808FA0CF8C2F81080401CEE
:100B00000828CED35460BDE8F0814FF6FF71018014
:100B1000022181700421C170704702460020936851
:100B20000B400BB1012000E00020704701468868AF
:100B300080B2704702460020D3680B400BB1012001
:100B400000E0002070470146C86880B2704701612C
:100B50007047416170470AB1016100E0416170472F
:100B6000C16070474FF480320A43826181618261C3
:100B700082698269704702460020434B18684FF62D
:100B80008073184040EA021008433F4B18607047DA
:100B90003E49C8617047F0B50A4600230024002191
:100BA000002500F00046B6F1004F02D1364EF16943
:100BB00001E0354E7168C0F3034583B200F440167E
:100BC000B6F5401F08D121F070612F4E766826F0EF
:100BD00070662D4F7E6012E000F48016B6F5801F1F
:100BE00006D1032606FA05F4A14341F0706106E040
:100BF000460D360103FA06F6B14341F0706122B1A9
:100C0000460D360103FA06F6314300F00046B6F110
:100C1000004F02D11C4EF16101E01B4E7160F0BD2E
:100C200030B500228B071C0F0F2303FA04F2164B7A
:100C300008338C1053F824309343134C08348D1030
:100C400044F8253023468C1053F824308C07240FA9
:100C500000FA04F423430C4C08348D1044F825307A
:100C600030BD0A49DC3108607047000000080140CF
:100C7000000C014000100140001401400018014028
:100C8000001C014000200140000001400000204203
:100C9000DF48006840F00100DD4908600846406810
:100CA000DC490840DA49486008460068DA490840EB
:100CB000D74908600846006820F48020086008468C
:100CC000406820F4FE0048604FF41F0088607047C1
:100CD000CF49096821F48031CD4A11601146096875
:100CE00021F480211160B0F5803F03D0B0F5802F52
:100CF0000ED106E0C649096841F48031C44A11604A
:100D000007E0C349096841F4A021C14A116000E02D
:100D100000BF00BF704710B501460022002300202D
:100D20004A11012A02D1BA4C236806E0022A02D1F4
:100D3000B74C236A01E0B64C636A01F01F0201243C
:100D400094401C400CB1012000E0002010BD38B5DB
:100D5000002000900024002500BF3120FFF7DBFFBA
:100D600005460098401C00900098B0F5A06F01D097
:100D7000002DF2D03120FFF7CEFF08B1012400E0B2
:100D80000024204638BD01460020A14A106820F00A
:100D9000F80040EAC10010607047A0490860704741
:100DA000024600209A4B586820F47C1042EA010366
:100DB0001843974B5860704798490866704701463A
:100DC0000020934A506820F00300084350607047A9
:100DD0008F48406800F00C007047014600208C4AA4
:100DE000506820F0F0000843506070470146002032
:100DF000874A506820F4E06008435060704701461D
:100E00000020834A506820F4605040EAC1005060DE
:100E1000704729B17E4A527A02437D4B5A7204E0F0
:100E20007B4A527A82437A4B5A7270477B49D83157
:100E30000860704701460020754A506820F4404021
:100E40000843506070470021714A20321170704A87
:100E500082F82010012802D004280AD104E00121E0
:100E60006B4A2032117005E00521694A2032117069
:100E700000E000BF00BF70476949086070476449DF
:100E8000096A0143624A1162704765494439086042
:100E9000704730B500210022002400235C4D6D68AE
:100EA00005F00C0121B1042905D0082923D105E062
:100EB0005C4D056022E05B4D05601FE0544D6D68A0
:100EC00005F47012524D6D6805F48034022505EB6F
:100ED00092421CB9544D554305600BE04C4D6D6872
:100EE00005F400351DB1504D5543056002E04D4DF0
:100EF0005543056002E04B4D056000BF00BF444D07
:100F00006D6805F0F0010909484D6B5C0568DD402E
:100F100045603F4D6D6805F4E061090A434D6B5C27
:100F20004568DD4085603A4D6D6805F46051C90A39
:100F30003E4D6B5C4568DD40C560354D6D6805F420
:100F40004041890B3A4D6B5CC568B5FBF3F5056113
:100F500030BD29B12E4A526902432D4B5A6104E03B
:100F60002B4A526982432A4B5A61704729B1284A59
:100F700092690243264B9A6104E0254A92698243B2
:100F8000234B9A61704729B1214AD2690243204B11
:100F9000DA6104E01E4AD26982431D4BDA61704770
:100FA00029B11B4AD2680243194BDA6004E0184A9F
:100FB000D2688243164BDA60704729B1144A12692D
:100FC0000243134B1A6104E0114A12698243104B29
:100FD0001A61704712494039086070470F49C86468
:100FE00070470B49C87170470948406A40F08070EB
:100FF00007494862704701460020054A92680A4046
:101000000AB1012000E00020704701498872704752
:10101000001002400000FFF8FFFFF6FE0000424211
:101020008004424200127A0000093D0026000020A0
:101030003600002010B50446FB48844209D1012146
:101040008803FFF7ADFF00214FF48040FFF7A8FFB2
:1010500032E0F648844209D101214804FFF7ADFF90
:1010600000214FF40030FFF7A8FF25E0F04884424C
:1010700009D101218804FFF7A0FF00214FF480204F
:10108000FFF79BFF18E0EB48844209D10121C80417
:10109000FFF793FF00214FF40020FFF78EFF0BE0D6
:1010A000E548844208D101210805FFF786FF0021A9
:1010B0004FF48010FFF781FF10BD2DE9F04786B097
:1010C00005460E460024A24600BFA1460027B0896F
:1010D00000B100BF2F462C8A4CF6FF700440F08808
:1010E00004432C82AC894EF6F3100440B088318959
:1010F0000843718908430443AC81AC8A4FF6FF4032
:101100000440B0890443AC8201A8FFF7C2FEC64880
:10111000874202D1DDF810A001E0DDF80CA0A8891B
:1011200000F4004040B10AEBCA0000EB0A1031683D
:101130004900B0FBF1F807E00AEBCA0000EB0A1027
:1011400031688900B0FBF1F86420B8FBF0F00401CD
:101150002009642101FB1089A88900F4004040B1F6
:10116000322000EBC900B0FBF1F000F007000443AF
:1011700008E0322000EB09106421B0FBF1F000F030
:101180000F0004432C8106B0BDE8F0874FF41651E0
:10119000016000218180C18001810C2141810021F9
:1011A0008181704710B502460020108A4FF2FF037C
:1011B00018400B884C8823438C882343CC882343D6
:1011C0001843108210BD0021018041808180C180C0
:1011D000704721B1828942F40052828104E0828901
:1011E0004DF6FF731A4082817047F0B50346002424
:1011F00000260025002040F66A17B94200D100BF42
:101200001846C1F3421401F01F06012707FA06F53C
:10121000012C01D10C3004E0022C01D1103000E08F
:1012200014301AB107682F43076002E00768AF4324
:101230000760F0BD1AB1838A0B43838202E0838A80
:101240008B4383827047028A4FF6F0731A40028202
:10125000028A0A430282704782894FF2FF731A4062
:10126000828182890A438281704721B1828942F05A
:101270000202828104E082894FF6FD731A40828166
:101280007047028A4FF6DF731A400282028A0A43CD
:101290000282704721B1028A42F48042028204E055
:1012A000028A4BF6FF731A4002827047C1F30802AC
:1012B0008280704701468888C0F3080070478189A2
:1012C00041F0010181817047028BD2B20283028B0F
:1012D00042EA012202837047028B02F47F420283BA
:1012E000028B0A430283704721B1828A42F02002B6
:1012F000828204E0828A4FF6DF731A40828270474E
:1013000021B1828A42F01002828204E0828A4FF682
:10131000EF731A408282704721B1828A42F008023C
:10132000828204E0828A4FF6F7731A408282704705
:1013300021B1828942F40042828103E08289C2F3B2
:101340000E028281704721B1828A42F40062828259
:1013500004E0828A4FF2FF731A4082827047828AC9
:101360004FF6FB731A408282828A0A438282704758
:1013700021B1828A42F00202828204E0828A4FF620
:10138000FD731A408282704702460020B1F5007F4B
:1013900000D100BF13880B400BB1012000E00020FA
:1013A000704701F40072B2F5007F00D100BFCA435C
:1013B0000280704770B502460024002300250020FB
:1013C00040F66A16B14200D100BFC1F3421501F0E8
:1013D0001F03012606FA03F3012D02D1968933403B
:1013E00006E0022D02D1168A334001E0968A33408E
:1013F0000C12012606FA04F41688344013B10CB11D
:10140000012000E0002070BD10B50022002340F64E
:101410006A14A14200D100BF0A1201249440A3B271
:10142000DC43048010BD000000380140004400404F
:1014300000480040004C004000500040314901434A
:10144000314A1160704770B5002100230F22C47823
:1014500004B32D4C246804F4E064C4F5E064210A6C
:10146000C1F10403CA40447804FA03F184781440BB
:1014700021430901254C0678A155047804F01F0585
:101480000124AC4005786D11AD0005F1E025C5F8EB
:10149000004109E0047804F01F050124AC401C4D14
:1014A0000678761145F8264070BD1A4A0A40024374
:1014B000154B1B1F1A60704739B1134A121D126871
:1014C0000243114B1B1D1A6006E00F4A121D1268E1
:1014D00082430D4B1B1D1A607047042808D14FF042
:1014E000E021096941F004014FF0E022116107E0B9
:1014F0004FF0E021096921F004014FF0E022116171
:10150000704700000000FA050CED00E000E400E088
:1015100080E100E080FFFF1F704700000FB4044926
:1015200010B503AA029800F03FF910BC5DF814FB57
:10153000200000202DE9F0410E46044600202062E4
:101540002046E168884730B3252805D0D4E9012139
:101550009047206A401CF2E7E16820460027884750
:10156000050018D0A5F14100192802D820354FF404
:1015700000673246294620462760FEF713FE40B139
:10158000012804D0F61D26F007060836D8E7361DD8
:10159000D6E72846DAE7206ABDE8F08170B50C4648
:1015A0000546012A05D02878800600D5EA6900237F
:1015B00002E0012305E05B1C934202D2E05C0028BC
:1015C000F9D1A869E618C01AA861286A18442862E7
:1015D0002846AFF3008004E0D5E9012114F8010B9F
:1015E0009047B442F8D32846AFF3008070BD0000A6
:1015F0002DE9F0410646002410687529314616A5EC
:1016000010D0AFF30080002802DA404213A507E0B3
:1016100031688A0701D512A502E0490704D511A552
:10162000012401E0AFF3008000210A2206F1240723
:1016300009E0B0FBF2FCB0FBF2F302FB1C0030301F
:1016400078541846491C0028F3D123462A463046D0
:10165000BDE8F04100F039B8000000002D000000A6
:101660002B000000200000004FF000020429C0F011
:10167000128010F0030C00F0AB80CCF1040CBCF134
:10168000020F18BF00F8012BA8BF20F8022BA1EB16
:101690000C0100F09DB85FEAC17C24BF00F8012B6B
:1016A00000F8012B48BF00F8012B704770477047C6
:1016B0007047704710B500F0B1F8006810BD10B564
:1016C000044600F0ABF8046010BD2DE9F0470D466C
:1016D00099469246044600F124080168880604D51C
:1016E000E06921F01001216000E00120A84201DD45
:1016F000471B00E00027A1697A1902EB0900081ACC
:10170000A0612078C00602D42046AFF300800026F6
:1017100008E0D4E901211AF806009047206A401C2D
:10172000761C20624E45F4DB2078C0060AD52046A0
:10173000AFF3008006E0D4E9012130209047206A11
:10174000401C2062381EA7F10107F4DC07E0D4E951
:10175000012118F805009047206A401C2062281ECD
:10176000A5F10105F3DC2046AFF3008020780006E8
:1017700002D50220BDE8F0870120FBE710B54369E0
:1017800013B1AFF3008001E0FFF708FF012010BDA7
:10179000127800F124010A7000224A700122EDE75C
:1017A00011684FF0FF32E9E7074B70B50D467B44F7
:1017B00000F03DF80446284600F04CF810B14FF018
:1017C000FF3070BD204670BD09F0FFFF4FF00002F2
:1017D00000B5134694469646203922BFA0E80C5027
:1017E000A0E80C50B1F12001BFF4F7AF090728BF02
:1017F000A0E80C5048BF0CC05DF804EB890028BF7E
:1018000040F8042B08BF704748BF20F8022B11F0A6
:10181000804F18BF00F8012B704700000048704748
:101820000401002001694A1C02610878704700B574
:101830008FB0CDE901310021059105497944CDE909
:10184000031011466846FFF775FE0FB000BD00009B
:10185000E5FFFFFF007B00F0800070470048704705
:10186000040100207546FFF7F9FFAE460500694602
:10187000534620F00700854618B020B5FFF748F81A
:10188000BDE820404FF000064FF000074FF0000881
:101890004FF0000B21F00701AC46ACE8C009ACE802
:1018A000C009ACE8C009ACE8C0098D4670470446E1
:1018B000AFF300802046FEF78DFC490050EAC120BE
:1018C00018BF04204A0D18BF40F0010040F2FF721B
:1018D000B2EB515F08BF40F00200012808BF0520AD
:1018E000704700002DE9F74F144694B00021C4E979
:1018F00002111599079121F00045C9498D4206DC76
:101900001599C4E9000117B00020BDE8F08FC54962
:10191000DFF814A3A9423CDD0799C44E0029C44F47
:10192000C44A1599534619DD00F0EAFE554506D024
:10193000C14AC24B00F0E4FEC4E900010AE04FF0E6
:10194000D352BE4B00F0DCFE32463B4600F0D8FEE0
:10195000C4E9000117B00120BDE8F08F00F064FB7E
:10196000554506D0B44AB54B00F05EFBC4E9000112
:101970000AE04FF0D352B14B00F056FB32463B46E3
:1019800000F052FBC4E9000117B04FF0FF30BDE892
:10199000F08FAB49A942159978DB21F000418346CD
:1019A0008846A84AA84B00F0A1FD0022A74B00F0F2
:1019B0003BFB00F041FD099000F06DFD06460F462F
:1019C0009C4A534600F092FD43465A4600F08CFE76
:1019D00080468A46984A994B3046394600F086FD43
:1019E0002A0D01250B924246534600F07DFE032D41
:1019F000C4E9000139D00B98C1F30A51401A05EB34
:101A000045111139814230DA9148C346784400EBE0
:101A10000510CDF80CA00C90D0E9002330463946D3
:101A200000F064FD02460B46049106905846039967
:101A300000F066FE80468A4602460B4658460399E9
:101A400000F05EFE049B069A00F05AFE83460C9856
:101A500003913946D0E90223304600F047FD5A464B
:101A6000039B00F04DFE6D1CBDE707980028A2BF48
:101A7000099817B0BDE8F08F616881F0004161609E
:101A8000099817B04042BDE8F08FFFE784461598EB
:101A9000C1F31301C0F30A50A0F2F5304FEA601809
:101AA00000F01F06C6F1200013900020069007905A
:101AB00041F4801E05206D4676B1664A08EB0001B0
:101AC0007A4452F8213002EB8101B3404A681399FD
:101AD00022FA01F1194305E05F4908EB000279445D
:101AE00051F82210A1FB0E27A1FB0C131A449A42B5
:101AF00034BF0123002303EB070A05EB8003D3E97E
:101B000001B70F448F4234BF0121002193448B441D
:101B100011B1934502D903E0934501D2012100E0C0
:101B20000021C3E901B7514445F82010011EA0F17E
:101B30000100C1DC0298059F00F10050800F129057
:101B40000298DDE90356800000F0A5FC8346284694
:101B50000D9100F0B7FC6FF01D0201F001F8CDE926
:101B60000E01304600F0AEFC6FF03D0200F0F8FFD1
:101B700080468A46384600F0A5FC6FF05D0200F012
:101B8000EFFF074642465346119100F04DFADDE95A
:101B90000E2300F049FA5A460D9B00F045FA002545
:101BA0000E465A4628460D9B00F0AAFDDDE90E239D
:101BB00000F0A6FD4246534600F0A2FD3A46119BB6
:101BC00000F092FDDFF898A0244A534600F08EFC06
:101BD00007468846234A244B3146284600F086FCB7
:101BE0003A46434600F020FA074688464FF0A8429E
:101BF00053463146284600F079FC3A46434600F009
:101C000013FA159A12F0004F04D0129A81F0004195
:101C100052421292C4E90001129817B0BDE8F08F49
:101C2000FB21E93F7CD90240FB21F93F7370032E71
:101C30008A19A33B000040543163621A61B4D03D5D
:101C4000FB21394183C8C96D305FE43F0000E03FAC
:101C5000101200008C1100006E110000182D445469
:101C6000FB21F93D3326A611460B113C2DE9FF4D12
:101C700021F0004807460C46B8F1795F08DA00F019
:101C8000DBFB002801BF0020324904B0BDE8F08D25
:101C90003A4623461046194600F028FC05460246FF
:101CA0002D480E460B460621784400F05DF82A4682
:101CB000334600F01BFCDDE9022382468B463846A2
:101CC000214600F013FC04460F4652465B46284668
:101CD000314600F00BFC22463B4600F011FD074662
:101CE0008A464FF0FF322846314600F039FF1B4A42
:101CF00090450ADA3A46534600F002FD04B000224D
:101D0000BDE8F04D134B00F0EFBC154A4245A8BFAB
:101D1000A8F500154FF00004B8BF124D22462B461F
:101D200000F0EEFC0646884622462B460020094974
:101D300000F0E6FC04460D463A465346304641461E
:101D400000F0DEFC04B022462B46BDE8F04D00F06A
:101D5000CBBC00000000F03F440F00003333D33F02
:101D60000000E93F0000D23F2DE9F0414F1E00EB9B
:101D7000C7010446D1E9000115461E4637F00602A8
:101D80000DD02A46334600F0B1FB7F1E04EBC7039B
:101D9000D3E9002300F048F937F00602F1D1022F11
:101DA00025D0042F13D0062F18BFBDE8F0812A4696
:101DB000334600F09BFBD4E90A2300F035F92A46AC
:101DC000334600F093FBD4E9082300F02DF92A46AE
:101DD000334600F08BFBD4E9062300F025F92A46B0
:101DE000334600F083FBD4E9042300F01DF92A46B2
:101DF000334600F07BFBD4E9022300F015F92A46B4
:101E0000334600F073FBD4E90023BDE8F04100F055
:101E10000BB900002DE9FF4D054621F0004084B0CC
:101E20000C46B0F1795F0BDA2846FFF746FD04282F
:101E300008BF00F06FF8284608B02146BDE8F08DD5
:101E40002A460B46104600F051FB06460F462A462E
:101E5000234600F04BFB804626488A4632463B46E6
:101E600005217844FFF780FF83461098029160B304
:101E7000214A224B4046514600F038FBCDE9000193
:101E80005A4640465146029B00F030FB8246884647
:101E9000DDE906014FF0FF3200F062FE5246434694
:101EA00000F02EFC32463B4600F020FBDDE9062325
:101EB00000F026FCDDE9002300F022FC08B02A46F1
:101EC0002346BDE8F04D00F00FBC0B465A463046A5
:101ED000394600F00BFB084A084B00F0A5F84246D3
:101EE000534600F003FB08B02A462346BDE8F04DF8
:101EF00000F09AB8820E0000495555555555C5BF9A
:101F0000012200F02DBE002213461046114600F0BB
:101F10003BB90000024A0020110700F021BE00007A
:101F200001FDFFFF00B5254B21F0004287B09A422A
:101F300003DC0022134600922BE0214B9A4208D189
:101F400040B94FF00100FFF7BAFBFFF7DCFF07B025
:101F500000BD03DBFFF7D4FF07B000BD02AAFFF707
:101F6000C1FC10F003014FF001000DD0012914D085
:101F700002291AD00DF1080C9CE80F00FFF776FE3D
:101F800007B081F0004100BD0DF1080C00909CE805
:101F90000F00FFF73FFF07B000BD0DF1080C9CE8F4
:101FA0000F00FFF763FE07B000BD0DF1080C0090B5
:101FB0009CE80F00FFF72EFFE2E70000FB21E93F5E
:101FC0000000F07F21F00042A2F16052B2F5801FC4
:101FD00001F0004328BFD2F17F6C0BD95FEA001CEF
:101FE00043EAC20242EB507018BF704728BF20F08E
:101FF00001007047B2F5801FBCBF184670474FEA1A
:10200000410C1CF5001F02D2084600F072BD70B5ED
:1020100000F016FB00000089FFF7F6BF4FF000400C
:10202000A0F580007047000010B591EA030F48BF8B
:1020300083F0004300F16C83841A71EB030C05D22A
:10204000121943EB0C03001B61EB0C01DFF824E1D8
:102050004FEA1154A4EB135C1EEA430F18BF9EEA2B
:10206000445F73D023EA0E03DCF1200E21EA045111
:1020700043F4801332D322FA0CFE10EB0E0023FA45
:102080000CFE41EB0E01CCF1200E03FA0EFE10EB1C
:102090000E0051F10001B1F5801FCCF1200E32D2BB
:1020A00001EB045112FA0EF2BDE8104058BF704720
:1020B000401C38BF5FEA420218BF7047002814BFB7
:1020C00020F0010041F100014FEA410313F5001F28
:1020D00038BF7047A1F1C04100F000BB012A43EBBB
:1020E0000302ACF1200CDCF11F0E32BF4FF0000EEA
:1020F00023FA0CF310EB030041EB0451B4EB115F36
:10210000D0D0A1EB045101F5801149085FEA3000FD
:1021100001EB04510ED350F1000038BF12FA0EFE4D
:1021200008D1BDE81040C9E7401C38BF5FEA420251
:10213000CAD1C3E7BDE810404FEA410313F5001FC1
:1021400038BF7047A1F1C04100F0C8BA9EEA445FB1
:1021500008D011EA5E0FBDE8104004BF01F0004155
:1021600000207047BDE8104070B500F069FA00BF6C
:1021700064FBBE3E0000E0FF02494FF0000000F0AB
:10218000BDBC00BF0000F87F2DE9C04130B4DFF8CE
:10219000A0C23CEA111418BF3CEA131400F0EC8012
:1021A00081EA03051CEA111444EAD57418BF1CEA3D
:1021B000131500F0C780A4EB05044FF0004545EA75
:1021C000C12145EAC32341EA505143EA525304F185
:1021D0007F74994204F500344FEAC0204FEAC222CE
:1021E00008BF904200F09C804FEA13650FF2401642
:1021F000765D4FEA134506FB05F7C7F1807706FBCE
:1022000007F74FEAD737A7FB03687642C8F580384F
:10221000A7FB06CE38BFA8F1010807FB08E64FF080
:10222000000EA6FB028CE6FB03CEDCF1000CCEF127
:10223000004E38BFAEF1010EA6FB0C584FF0000760
:102240004FF00005E6FB0E87A1FB08C6A0FB07CEFA
:1022500016EB0E0645F10005E1FB076515F1E04EB2
:102260007EBFA4F580345FEA46066D4116F1800713
:1022700045F100054FEA17274FEA066647EA05676A
:10228000A6F1DE46B6F1805F4FEA15251FD9384624
:1022900024F0010C05EBC471BCF1FE6F01EB0C11D5
:1022A00002D8F0BCBDE8008124425CBF01F5801E6D
:1022B0009EEAC47F02D4F0BCBDE80081244238D439
:1022C000F0BCA1F1C041BDE8004100F007BA4FEAFF
:1022D000D22242EA43524FEAD323A7FB02864FEAB7
:1022E000D02040EA415007FB03661EEA0E0F4FEA7A
:1022F000D12105FB026658BFA6EB0056B6EB00568F
:102300004FEA520E4EEAC37E18EB0E0E56EB530EFA
:10231000BDD518EB02085E417F1C55F10005B6E7FC
:102320004FF480154FF000074FF000064FF0000803
:10233000ADE7F0BC4FF0000001F1C04101F00041F9
:10234000BDE8008111EA0C1F0CEA131500D00CE067
:1023500013EA0C1F00F025804FF00000F0BC81EA6A
:10236000030101F00041BDE80081F0BCBDE800417F
:1023700081EA030100F0B2B9F0BCBDE8004170B5DC
:1023800000F05EF9097EFC3E00F007B881EA030127
:102390004FF0000001F00041704781EA030100F0B6
:1023A0009DB9F0BCBDE800414FF0000021497047E5
:1023B000FFFDFBF9F7F5F4F2F0EEEDEBE9E8E6E40A
:1023C000E3E1E0DEDDDBDAD8D7D5D4D3D1D0CFCD91
:1023D000CCCBCAC8C7C6C5C4C2C1C0BFBEBDBCBBCA
:1023E000BAB9B8B7B6B5B4B3B2B1B0AFAEADACABC5
:1023F000AAA9A8A8A7A6A5A4A3A3A2A1A09F9F9E9F
:102400009D9C9C9B9A999998979796959594939350
:10241000929191908F8F8E8E8D8C8C8B8B8A8989E7
:10242000888887878685858484838382828181806A
:102430000000FF070000F87F4FEA41034FEA5353C3
:10244000A3F58063D3F11E03C8BFD3F1210C0CDDCB
:102450004FF0004242EAC12242EA505232FA03FCF3
:102460008CEAE17CACEBE1707047102BC4BF00201C
:10247000704703F5787CBCF1FF3F04D06FF0004259
:1024800082EA2100704770B500F0DAF849922480A2
:1024900000207047F2E710F0004248BF4042B0FA17
:1024A00080F310FA03F10AD0C3F11D0303F5806332
:1024B0004FEA415002EB035202EBD12170474FF03B
:1024C00000007047B0FA80F310FA03F10AD0C3F1AC
:1024D0001D0303F580634FEA41504FEA035202EBBC
:1024E000D12170474FF0000070470000DFF848C16D
:1024F00070B51CEA111E1EBF1CEA13159EEA0C0FD4
:1025000095EA0C0F00F06F8081EA030423EA4C1374
:102510004EEAD47E21EA4C1141F4801143F4801339
:10252000AE44A1FB024CA0FB0365AEF17F7E3619E1
:1025300055EB0C05A1FB034C4CF10003A0FB021C66
:1025400016EB0C06654153F10003094218BF46F033
:10255000010613F4007F0BD14FEA03314FEA053037
:10256000340341EA155140EA16506FF003020AE0C5
:102570004FEAC3214FEAC520F40241EA555140EA2F
:1025800056506FF0020202EB2E4201EB025585EA33
:10259000CE710AD05FEA440C18BF24F0004450F119
:1025A000000041F1000120EAD47040F2FE7C624557
:1025B00000D270BDA84214BF4FF080444FF0404499
:1025C000002E08BF0024BEF1806FA8BFA1F1C0415A
:1025D000BDE8704080F282804FF0000001F1C04100
:1025E00001F0004170479EEA0C0F0CEA131518BF6A
:1025F00095EA0C0F06D04FF0000081EA030E0EF0B2
:10260000004170BD00F01CF88900013E00F007B8E1
:1026100000F009B84FEA430C5FEA5C5C08D081EA3D
:10262000030100F05BB84FEA410C5FEA5C5CF6D155
:102630004FF00000014970470000FF070000F87FDD
:102640000EF1020E2EF0030E5EF8046B364205D436
:10265000012A43EB030515F5001F12D8012841EBB1
:10266000010C1CF5001F0CD80ED14FEAD17C15F5DA
:10267000001F0CEB4C0C0CF1020C08BF4CEBD37C94
:1026800004E04FF0080C01E04FEAD37C0CEB4C0562
:1026900026FA05F606F00706B6F1040C06D20EEB94
:1026A000860CBDE870404CF0010C6047DFE80CF090
:1026B000090B02024FF000414FF00000A1F500218C
:1026C00070BD19461046012851EB010418BFD4F51E
:1026D000001484BF002001F0004170BD0808A0F57F
:1026E00000114FEA3101704791EA030F10B581F0F4
:1026F00000413FF5A1AC83F0004300F009B80000B1
:1027000010B591EA030F48BF83F000433FF594AC46
:10271000841A71EB030C07D212198CF0004C43EBB6
:102720000C03001B61EB0C01DFF8A4E14FEA11542C
:10273000A4EB135C1EEA430F18BF9EEA445F00F04F
:10274000B08023EA6E03524221EA0451C3EB6E03C8
:1027500038BF5B1EDCF1200E25D322FA0CFE10EBF5
:102760000E0043FA0CFE41EB0E01CCF1200E03FAF1
:102770000EFE10EB0E0051F10001CCF1200E29D419
:1027800012FA0EF201EB0451BDE8104058BF704739
:10279000401C1CBFB2F1004F704700280CBF491C01
:1027A00020F00100704712EB020E43EB030218BF4A
:1027B0004FF0010E4EEA4202ACF1200CDCF11E0E8D
:1027C00054D943FA0CFE10EB0E0051F1FF31CCF15D
:1027D0001E0ED5D50EF1010E12FA0EFE404141EB50
:1027E000010101EB445C5FEA5C5C10D910EBDE7028
:1027F00001EB045138BFBEF1004FBDE8104018BFD7
:10280000704700280CBF491C20F00100704730D2EF
:102810004FEAD42C11F5001124F400641BD0B1FA56
:1028200081F20B3AA41AA41ED2F12003914030FA8F
:1028300003F31943904001EBCC71002C01EB0451E0
:10284000BDE81040A8BF704701F1C0414FF0000043
:1028500001F000417047B0FA80F310FA03F100D1A3
:1028600010BDE41A173C4805C90AE4E701EB04511E
:1028700010BD491001EB0451BDE810404FEA300093
:1028800002E04FF0000170474A0008BF0042F8D054
:10289000B2F5001F28BF704701F000414FF0000063
:1028A00070479EEA445F07D011EA5E0FBDE8104012
:1028B00004BF002100207047BDE8104070B5FFF74D
:1028C000BFFE00BF40DFF63E83F000411046704778
:1028D0000000E0FF43004FEAD30C4FEA3C0C4340BA
:1028E0001FBF40070CF1605113F0FE4F70471CF002
:1028F000006F03D100200CF0004170470CF0004342
:1029000043EA507010B540EACC0000F0ACF800BFCC
:10291000000000924FEA0001FFF7E0BE4FF00041D7
:102920004FF00000A1F500217047000041000B0EA0
:10293000D3F19E0208D950F400034FEA032323FA8F
:1029400002F048BF4042704710B500F08CF800BF5D
:1029500049922480002070476FF0004282EA2000F4
:10296000704700004FF47F0C1CEAD0121EBF1CEA17
:10297000D11392EA0C0F93EA0C0F00F0478090EA13
:10298000010F48BF42F480724FF0004C4CEA002027
:102990004CEA012102EB0302A0FB0113A2F50002A5
:1029A000002918BF43F001035B0028BF4FEA33033F
:1029B00042EB22425FEA132C4CEBC2502EBFBCEB21
:1029C000436FB2F57C0F70474FEA036CBCF1004FC8
:1029D00008BF20F00100B2F57C0F38BF70470BD55F
:1029E00082F0FF0212F5803FC8BF704700F1C0407F
:1029F000D8BF00F00040704700F5000C5FEA4C0CB7
:102A000048BF7047B0F1C04000F073B890EA010FC2
:102A10000CEAD11348BF42F48072624538BF634567
:102A200004D280EA010000F00040704710B500F0C9
:102A30001AF800BF8900013E00F007B800F009B89D
:102A40005FEA410C5FEA1C6C08D080EA010000F0EC
:102A500050B85FEA400C5FEA1C6CF6D14FF00040C2
:102A6000A0F5800070470EF1020E2EF0030E5EF806
:102A7000044B244204D44FEA4102B2F17F4F11D8F3
:102A80004FEA4003B3F17F4F0CD80ED14FEAD07C10
:102A9000B2F17F4F0CEB4C0C0CF1020C08BF4CEB6D
:102AA000D17C04E04FF0080C01E04FEAD17C0CEB44
:102AB0004C0324FA03F404F00704B4F1040C06D226
:102AC0000EEB840CBDE810404CF0010C6047DFE8D1
:102AD0000CF0070802024FF00040A0F5800010BD86
:102AE0000846420018BFD2F1807288BF00F0004053
:102AF00010BDFF2141EAD050C00570470CF00F0314
:102B0000092B08BF082000F059800A2B0BD0082B96
:102B100018BF704708BF1CF0400F0AD04FF00000EC
:102B20004FF0000170471CF0400F18BF4FF00040FD
:102B300070471CF0100F08D020F0704300F07F4267
:102B400042EAD3014FEA4370704700F0604021F041
:102B50007F4242EA000201F07F4040EA7270704713
:102B60004FF0FF0C4CF4E06C1CEA11531CBF9CEAC4
:102B7000030C9445C2BFDA4201EB02517047002BAF
:102B80000DD0BCF1000F0FD0002A01F00041A4BF0E
:102B900041F0E04141F07F614FF00000704701F0EB
:102BA00000414FF00000704750EA01334FF09B0C9A
:102BB00018BF4CF0806C7FF4DFAA70471CF4801FB4
:102BC00011D01CF4E02F03D06FEACC3149007047DC
:102BD0004FF04050EFF3008222F0704242EA0002D0
:102BE00082F3008870474FF000007047000000003B
:102BF0004C5555555555A53F7751C1166CC156BF1B
:102C00009015CB19A001FA3EAD529C804F7E92BE2A
:102C1000C4B1B4BD9EEE213ED43888BEE9FAA8BD49
:102C200000004054FB21F93F3163621A61B4D03D8A
:102C30000000601A61B4D03D7370032E8A19A33B63
:102C40000000002E8A19A33BC14920259A837B39B5
:102C500000000000000000006E83F9A22915444E18
:102C6000D15727FCC0DD34F5999562DB4190433C98
:102C7000AB6351FE61C5BBDE3A6E24B7E0D24D4274
:102C8000EA2E49061C92D1091CEB1DFE3EA729B174
:102C9000F53582E88444BB2E26709CE9417E5FB402
:102CA00039D69139F43953838B5F849C3B28F9BD25
:102CB000FF97F81F0F9805DE8B112FEF1F6D0A5A33
:102CC000CF7E366DB709CB27663F464F2DEA5F9E14
:102CD000C7BA27757BF1E5EBF739073DEA92528ACF
:102CE000B15FFB6B085D8D1FA6F810111111813FBC
:102CF000D561C119A0012ABF7DFEB157E31DC73EB2
:102D0000EB9C2B8AE6E55ABE7CD5CF5A3AD9E53DF5
:102D1000302D0008000000203C0000006C0100087D
:102D20006C2D00083C0000202C07000088010008E2
:102D3000000000000000000000A24A0400000000A3
:102D4000000000000102030406070809000000005B
:102D50000000000000000000000001020304010266
:0C2D60000304060708090204060800002E
:0400000508000131BD
:00000001FF
